{
  "_format": "hh-sol-artifact-1",
  "contractName": "Charity",
  "sourceName": "contracts/Charity.sol",
  "abi": [
    {
      "inputs": [],
      "stateMutability": "nonpayable",
      "type": "constructor"
    },
    {
      "anonymous": false,
      "inputs": [
        {
          "indexed": true,
          "internalType": "address",
          "name": "owner",
          "type": "address"
        },
        {
          "indexed": true,
          "internalType": "address",
          "name": "spender",
          "type": "address"
        },
        {
          "indexed": false,
          "internalType": "uint256",
          "name": "value",
          "type": "uint256"
        }
      ],
      "name": "Approval",
      "type": "event"
    },
    {
      "anonymous": false,
      "inputs": [
        {
          "indexed": true,
          "internalType": "address",
          "name": "from",
          "type": "address"
        },
        {
          "indexed": true,
          "internalType": "address",
          "name": "to",
          "type": "address"
        },
        {
          "indexed": false,
          "internalType": "uint256",
          "name": "value",
          "type": "uint256"
        }
      ],
      "name": "Transfer",
      "type": "event"
    },
    {
      "inputs": [
        {
          "internalType": "address",
          "name": "",
          "type": "address"
        }
      ],
      "name": "KarmaBalance",
      "outputs": [
        {
          "internalType": "uint256",
          "name": "",
          "type": "uint256"
        }
      ],
      "stateMutability": "view",
      "type": "function"
    },
    {
      "inputs": [
        {
          "internalType": "bytes32",
          "name": "ticker",
          "type": "bytes32"
        },
        {
          "internalType": "address",
          "name": "tokenAddress",
          "type": "address"
        }
      ],
      "name": "addToken",
      "outputs": [],
      "stateMutability": "nonpayable",
      "type": "function"
    },
    {
      "inputs": [
        {
          "internalType": "address",
          "name": "owner",
          "type": "address"
        },
        {
          "internalType": "address",
          "name": "spender",
          "type": "address"
        }
      ],
      "name": "allowance",
      "outputs": [
        {
          "internalType": "uint256",
          "name": "",
          "type": "uint256"
        }
      ],
      "stateMutability": "view",
      "type": "function"
    },
    {
      "inputs": [
        {
          "internalType": "address",
          "name": "spender",
          "type": "address"
        },
        {
          "internalType": "uint256",
          "name": "amount",
          "type": "uint256"
        }
      ],
      "name": "approve",
      "outputs": [
        {
          "internalType": "bool",
          "name": "",
          "type": "bool"
        }
      ],
      "stateMutability": "nonpayable",
      "type": "function"
    },
    {
      "inputs": [
        {
          "internalType": "address",
          "name": "account",
          "type": "address"
        }
      ],
      "name": "balanceOf",
      "outputs": [
        {
          "internalType": "uint256",
          "name": "",
          "type": "uint256"
        }
      ],
      "stateMutability": "view",
      "type": "function"
    },
    {
      "inputs": [
        {
          "internalType": "address",
          "name": "",
          "type": "address"
        },
        {
          "internalType": "bytes32",
          "name": "",
          "type": "bytes32"
        }
      ],
      "name": "balances",
      "outputs": [
        {
          "internalType": "uint256",
          "name": "",
          "type": "uint256"
        }
      ],
      "stateMutability": "view",
      "type": "function"
    },
    {
      "inputs": [],
      "name": "decimals",
      "outputs": [
        {
          "internalType": "uint8",
          "name": "",
          "type": "uint8"
        }
      ],
      "stateMutability": "view",
      "type": "function"
    },
    {
      "inputs": [
        {
          "internalType": "address",
          "name": "spender",
          "type": "address"
        },
        {
          "internalType": "uint256",
          "name": "subtractedValue",
          "type": "uint256"
        }
      ],
      "name": "decreaseAllowance",
      "outputs": [
        {
          "internalType": "bool",
          "name": "",
          "type": "bool"
        }
      ],
      "stateMutability": "nonpayable",
      "type": "function"
    },
    {
      "inputs": [
        {
          "internalType": "uint256",
          "name": "amount",
          "type": "uint256"
        },
        {
          "internalType": "bytes32",
          "name": "ticker",
          "type": "bytes32"
        }
      ],
      "name": "deposit",
      "outputs": [],
      "stateMutability": "nonpayable",
      "type": "function"
    },
    {
      "inputs": [],
      "name": "depositMATIC",
      "outputs": [],
      "stateMutability": "payable",
      "type": "function"
    },
    {
      "inputs": [
        {
          "internalType": "address",
          "name": "spender",
          "type": "address"
        },
        {
          "internalType": "uint256",
          "name": "addedValue",
          "type": "uint256"
        }
      ],
      "name": "increaseAllowance",
      "outputs": [
        {
          "internalType": "bool",
          "name": "",
          "type": "bool"
        }
      ],
      "stateMutability": "nonpayable",
      "type": "function"
    },
    {
      "inputs": [],
      "name": "karmaOwner",
      "outputs": [
        {
          "internalType": "address",
          "name": "",
          "type": "address"
        }
      ],
      "stateMutability": "view",
      "type": "function"
    },
    {
      "inputs": [],
      "name": "name",
      "outputs": [
        {
          "internalType": "string",
          "name": "",
          "type": "string"
        }
      ],
      "stateMutability": "view",
      "type": "function"
    },
    {
      "inputs": [
        {
          "internalType": "address",
          "name": "to",
          "type": "address"
        },
        {
          "internalType": "uint256",
          "name": "amount",
          "type": "uint256"
        }
      ],
      "name": "sendCharity",
      "outputs": [],
      "stateMutability": "nonpayable",
      "type": "function"
    },
    {
      "inputs": [],
      "name": "symbol",
      "outputs": [
        {
          "internalType": "string",
          "name": "",
          "type": "string"
        }
      ],
      "stateMutability": "view",
      "type": "function"
    },
    {
      "inputs": [
        {
          "internalType": "uint256",
          "name": "",
          "type": "uint256"
        }
      ],
      "name": "tokenList",
      "outputs": [
        {
          "internalType": "bytes32",
          "name": "",
          "type": "bytes32"
        }
      ],
      "stateMutability": "view",
      "type": "function"
    },
    {
      "inputs": [
        {
          "internalType": "bytes32",
          "name": "",
          "type": "bytes32"
        }
      ],
      "name": "tokenMapping",
      "outputs": [
        {
          "internalType": "bytes32",
          "name": "ticker",
          "type": "bytes32"
        },
        {
          "internalType": "address",
          "name": "tokenAddress",
          "type": "address"
        }
      ],
      "stateMutability": "view",
      "type": "function"
    },
    {
      "inputs": [],
      "name": "totalSupply",
      "outputs": [
        {
          "internalType": "uint256",
          "name": "",
          "type": "uint256"
        }
      ],
      "stateMutability": "view",
      "type": "function"
    },
    {
      "inputs": [
        {
          "internalType": "address",
          "name": "recipient",
          "type": "address"
        },
        {
          "internalType": "uint256",
          "name": "amount",
          "type": "uint256"
        }
      ],
      "name": "transfer",
      "outputs": [
        {
          "internalType": "bool",
          "name": "",
          "type": "bool"
        }
      ],
      "stateMutability": "nonpayable",
      "type": "function"
    },
    {
      "inputs": [
        {
          "internalType": "address",
          "name": "sender",
          "type": "address"
        },
        {
          "internalType": "address",
          "name": "recipient",
          "type": "address"
        },
        {
          "internalType": "uint256",
          "name": "amount",
          "type": "uint256"
        }
      ],
      "name": "transferFrom",
      "outputs": [
        {
          "internalType": "bool",
          "name": "",
          "type": "bool"
        }
      ],
      "stateMutability": "nonpayable",
      "type": "function"
    },
    {
      "inputs": [
        {
          "internalType": "uint256",
          "name": "amount",
          "type": "uint256"
        }
      ],
      "name": "withdrawMATIC",
      "outputs": [],
      "stateMutability": "nonpayable",
      "type": "function"
    }
  ],
  "bytecode": "0x60806040523480156200001157600080fd5b50604080518082018252600981526825b0b936b0a1b7b4b760b91b6020808301918252835180850190945260058452644b61726d6160d81b90840152815191929162000060916006916200007f565b508051620000769060079060208401906200007f565b50505062000162565b8280546200008d9062000125565b90600052602060002090601f016020900481019282620000b15760008555620000fc565b82601f10620000cc57805160ff1916838001178555620000fc565b82800160010185558215620000fc579182015b82811115620000fc578251825591602001919060010190620000df565b506200010a9291506200010e565b5090565b5b808211156200010a57600081556001016200010f565b6002810460018216806200013a57607f821691505b602082108114156200015c57634e487b7160e01b600052602260045260246000fd5b50919050565b6112ab80620001726000396000f3fe60806040526004361061012a5760003560e01c806370a08231116100ab5780639ead72221161006f5780639ead72221461031a578063a457c2d71461033a578063a9059cbb1461035a578063c9630cb01461037a578063cf079b5a1461039a578063dd62ed3e146103ba5761012a565b806370a08231146102855780637cb94b5c146102a5578063816837e3146102c557806395d89b41146102e55780639776aacf146102fa5761012a565b806323b872dd116100f257806323b872dd146101d3578063313ce567146101f357806339509351146102155780634cff812e14610235578063667cb4ba146102575761012a565b806306fdde031461012f578063095ea7b31461015a57806318160ddd146101875780631d9053e0146101a95780631f14df69146101b3575b600080fd5b34801561013b57600080fd5b506101446103da565b6040516101519190610e8f565b60405180910390f35b34801561016657600080fd5b5061017a610175366004610d88565b61046c565b6040516101519190610e64565b34801561019357600080fd5b5061019c610489565b6040516101519190610e6f565b6101b161048f565b005b3480156101bf57600080fd5b5061019c6101ce366004610d88565b6104e1565b3480156101df57600080fd5b5061017a6101ee366004610d4d565b6104fe565b3480156101ff57600080fd5b50610208610597565b60405161015191906111e7565b34801561022157600080fd5b5061017a610230366004610d88565b61059c565b34801561024157600080fd5b5061024a6105f0565b6040516101519190610e2c565b34801561026357600080fd5b50610277610272366004610dd1565b610608565b604051610151929190610e78565b34801561029157600080fd5b5061019c6102a0366004610d01565b61062a565b3480156102b157600080fd5b5061019c6102c0366004610d01565b610649565b3480156102d157600080fd5b506101b16102e0366004610dd1565b61065b565b3480156102f157600080fd5b506101446106f0565b34801561030657600080fd5b506101b1610315366004610de9565b6106ff565b34801561032657600080fd5b5061019c610335366004610dd1565b610777565b34801561034657600080fd5b5061017a610355366004610d88565b610798565b34801561036657600080fd5b5061017a610375366004610d88565b610811565b34801561038657600080fd5b506101b1610395366004610e0b565b610825565b3480156103a657600080fd5b506101b16103b5366004610d88565b610901565b3480156103c657600080fd5b5061019c6103d5366004610d1b565b610ab9565b6060600680546103e990611224565b80601f016020809104026020016040519081016040528092919081815260200182805461041590611224565b80156104625780601f1061043757610100808354040283529160200191610462565b820191906000526020600020905b81548152906001019060200180831161044557829003601f168201915b5050505050905090565b6000610480610479610ae4565b8484610ae8565b50600192915050565b60055490565b336000908152600260209081526040808320644d4154494360d81b84529091529020546104bc9034610b9c565b336000908152600260209081526040808320644d4154494360d81b8452909152902055565b600260209081526000928352604080842090915290825290205481565b600061050b848484610baf565b6001600160a01b03841660009081526004602052604081208161052c610ae4565b6001600160a01b03166001600160a01b03168152602001908152602001600020549050828110156105785760405162461bcd60e51b815260040161056f90611081565b60405180910390fd5b61058c85610584610ae4565b858403610ae8565b506001949350505050565b601290565b60006104806105a9610ae4565b8484600460006105b7610ae4565b6001600160a01b03908116825260208083019390935260409182016000908120918b16815292529020546105eb91906111f5565b610ae8565b73453b0255fb8ac91fa5d6606d1647df201fa6c7d581565b600060208190529081526040902080546001909101546001600160a01b031682565b6001600160a01b0381166000908152600360205260409020545b919050565b60086020526000908152604090205481565b336000908152600260209081526040808320644d4154494360d81b845290915290205481111561069d5760405162461bcd60e51b815260040161056f90610fad565b336000908152600260209081526040808320644d4154494360d81b84529091529020546106ca9082610cd9565b336000908152600260209081526040808320644d4154494360d81b845290915290205550565b6060600780546103e990611224565b6040805180820182528381526001600160a01b0392831660208083019182526000868152908190529283209151825551600191820180546001600160a01b0319169190941617909255815480830183559190527fb10e2d527612073b26eecdfd717e6a320cf44b4afac2b0732d9fcbe2b7fa0cf60155565b6001818154811061078757600080fd5b600091825260209091200154905081565b600080600460006107a7610ae4565b6001600160a01b03908116825260208083019390935260409182016000908120918816815292529020549050828110156107f35760405162461bcd60e51b815260040161056f906111a2565b6108076107fe610ae4565b85858403610ae8565b5060019392505050565b600061048061081e610ae4565b8484610baf565b600081815260208190526040908190206001015490516323b872dd60e01b81526001600160a01b03909116906323b872dd9061086990339030908790600401610e40565b602060405180830381600087803b15801561088357600080fd5b505af1158015610897573d6000803e3d6000fd5b505050506040513d601f19601f820116820180604052508101906108bb9190610db1565b503360009081526002602090815260408083208484529091529020546108e19083610b9c565b336000908152600260209081526040808320948352939052919091205550565b6001600160a01b03821673453b0255fb8ac91fa5d6606d1647df201fa6c7d51461093d5760405162461bcd60e51b815260040161056f906110c9565b336000908152600260209081526040808320644d4154494360d81b8452909152902054600111156109805760405162461bcd60e51b815260040161056f9061102b565b60018110156109a15760405162461bcd60e51b815260040161056f90610fdb565b336000908152600260209081526040808320644d4154494360d81b84529091529020546109ce9082610cd9565b336000908152600260208181526040808420644d4154494360d81b808652908352818520959095556001600160a01b0387168452918152818320938352929092522054610a1b9082610b9c565b6001600160a01b0383166000908152600260209081526040808320644d4154494360d81b8452825280832093909355338252600890522054610a5d9082610b9c565b33600081815260086020526040908190209290925590516001600160a01b03841691907fddf252ad1be2c89b69c2b068fc378daa952ba7f163c4a11628f55a4df523b3ef90610aad908590610e6f565b60405180910390a35050565b6001600160a01b03918216600090815260046020908152604080832093909416825291909152205490565b3390565b6001600160a01b038316610b0e5760405162461bcd60e51b815260040161056f9061115e565b6001600160a01b038216610b345760405162461bcd60e51b815260040161056f90610f25565b6001600160a01b0380841660008181526004602090815260408083209487168084529490915290819020849055517f8c5be1e5ebec7d5bd14f71427d1e84f3dd0314c0f7b2291e5b200ac8c7c3b92590610b8f908590610e6f565b60405180910390a3505050565b6000610ba882846111f5565b9392505050565b6001600160a01b038316610bd55760405162461bcd60e51b815260040161056f90611119565b6001600160a01b038216610bfb5760405162461bcd60e51b815260040161056f90610ee2565b610c06838383610ce5565b6001600160a01b03831660009081526003602052604090205481811015610c3f5760405162461bcd60e51b815260040161056f90610f67565b6001600160a01b03808516600090815260036020526040808220858503905591851681529081208054849290610c769084906111f5565b92505081905550826001600160a01b0316846001600160a01b03167fddf252ad1be2c89b69c2b068fc378daa952ba7f163c4a11628f55a4df523b3ef84604051610cc09190610e6f565b60405180910390a3610cd3848484610ce5565b50505050565b6000610ba8828461120d565b505050565b80356001600160a01b038116811461064457600080fd5b600060208284031215610d12578081fd5b610ba882610cea565b60008060408385031215610d2d578081fd5b610d3683610cea565b9150610d4460208401610cea565b90509250929050565b600080600060608486031215610d61578081fd5b610d6a84610cea565b9250610d7860208501610cea565b9150604084013590509250925092565b60008060408385031215610d9a578182fd5b610da383610cea565b946020939093013593505050565b600060208284031215610dc2578081fd5b81518015158114610ba8578182fd5b600060208284031215610de2578081fd5b5035919050565b60008060408385031215610dfb578182fd5b82359150610d4460208401610cea565b60008060408385031215610e1d578182fd5b50508035926020909101359150565b6001600160a01b0391909116815260200190565b6001600160a01b039384168152919092166020820152604081019190915260600190565b901515815260200190565b90815260200190565b9182526001600160a01b0316602082015260400190565b6000602080835283518082850152825b81811015610ebb57858101830151858201604001528201610e9f565b81811115610ecc5783604083870101525b50601f01601f1916929092016040019392505050565b60208082526023908201527f45524332303a207472616e7366657220746f20746865207a65726f206164647260408201526265737360e81b606082015260800190565b60208082526022908201527f45524332303a20617070726f766520746f20746865207a65726f206164647265604082015261737360f01b606082015260800190565b60208082526026908201527f45524332303a207472616e7366657220616d6f756e7420657863656564732062604082015265616c616e636560d01b606082015260800190565b602080825260149082015273496e73756666696369656e742062616c616e636560601b604082015260600190565b60208082526030908201527f546865206d696e696d756d206368617269747920616d6f756e7420776520616360408201526f636570742069732031204d415449432160801b606082015260800190565b60208082526036908201527f5468652073656e6465722068617320746f2068617665206174206c65617374206040820152750c481350551250c81a5b881a1a5cc81858d8dbdd5b9d60521b606082015260800190565b60208082526028908201527f45524332303a207472616e7366657220616d6f756e74206578636565647320616040820152676c6c6f77616e636560c01b606082015260800190565b60208082526030908201527f596f752063616e206f6e6c792073656e64206368617269747920746f2074686560408201526f2063686172697479206164647265737360801b606082015260800190565b60208082526025908201527f45524332303a207472616e736665722066726f6d20746865207a65726f206164604082015264647265737360d81b606082015260800190565b60208082526024908201527f45524332303a20617070726f76652066726f6d20746865207a65726f206164646040820152637265737360e01b606082015260800190565b60208082526025908201527f45524332303a2064656372656173656420616c6c6f77616e63652062656c6f77604082015264207a65726f60d81b606082015260800190565b60ff91909116815260200190565b600082198211156112085761120861125f565b500190565b60008282101561121f5761121f61125f565b500390565b60028104600182168061123857607f821691505b6020821081141561125957634e487b7160e01b600052602260045260246000fd5b50919050565b634e487b7160e01b600052601160045260246000fdfea2646970667358221220e15142480c732700cd4400b53cb20602f536d6470b15f80d0e5add0930c18c5964736f6c63430008000033",
  "linkReferences": {},
  "deployedLinkReferences": {}
}