{
  "contractName": "Charity",
  "abi": [
    {
      "inputs": [],
      "stateMutability": "nonpayable",
      "type": "constructor"
    },
    {
      "anonymous": false,
      "inputs": [
        {
          "indexed": true,
          "internalType": "address",
          "name": "owner",
          "type": "address"
        },
        {
          "indexed": true,
          "internalType": "address",
          "name": "spender",
          "type": "address"
        },
        {
          "indexed": false,
          "internalType": "uint256",
          "name": "value",
          "type": "uint256"
        }
      ],
      "name": "Approval",
      "type": "event"
    },
    {
      "anonymous": false,
      "inputs": [
        {
          "indexed": true,
          "internalType": "address",
          "name": "from",
          "type": "address"
        },
        {
          "indexed": true,
          "internalType": "address",
          "name": "to",
          "type": "address"
        },
        {
          "indexed": false,
          "internalType": "uint256",
          "name": "value",
          "type": "uint256"
        }
      ],
      "name": "Transfer",
      "type": "event"
    },
    {
      "inputs": [
        {
          "internalType": "address",
          "name": "",
          "type": "address"
        }
      ],
      "name": "KarmaBalance",
      "outputs": [
        {
          "internalType": "uint256",
          "name": "",
          "type": "uint256"
        }
      ],
      "stateMutability": "view",
      "type": "function",
      "constant": true
    },
    {
      "inputs": [
        {
          "internalType": "bytes32",
          "name": "ticker",
          "type": "bytes32"
        },
        {
          "internalType": "address",
          "name": "tokenAddress",
          "type": "address"
        }
      ],
      "name": "addToken",
      "outputs": [],
      "stateMutability": "nonpayable",
      "type": "function"
    },
    {
      "inputs": [
        {
          "internalType": "address",
          "name": "owner",
          "type": "address"
        },
        {
          "internalType": "address",
          "name": "spender",
          "type": "address"
        }
      ],
      "name": "allowance",
      "outputs": [
        {
          "internalType": "uint256",
          "name": "",
          "type": "uint256"
        }
      ],
      "stateMutability": "view",
      "type": "function",
      "constant": true
    },
    {
      "inputs": [
        {
          "internalType": "address",
          "name": "spender",
          "type": "address"
        },
        {
          "internalType": "uint256",
          "name": "amount",
          "type": "uint256"
        }
      ],
      "name": "approve",
      "outputs": [
        {
          "internalType": "bool",
          "name": "",
          "type": "bool"
        }
      ],
      "stateMutability": "nonpayable",
      "type": "function"
    },
    {
      "inputs": [
        {
          "internalType": "address",
          "name": "account",
          "type": "address"
        }
      ],
      "name": "balanceOf",
      "outputs": [
        {
          "internalType": "uint256",
          "name": "",
          "type": "uint256"
        }
      ],
      "stateMutability": "view",
      "type": "function",
      "constant": true
    },
    {
      "inputs": [
        {
          "internalType": "address",
          "name": "",
          "type": "address"
        },
        {
          "internalType": "bytes32",
          "name": "",
          "type": "bytes32"
        }
      ],
      "name": "balances",
      "outputs": [
        {
          "internalType": "uint256",
          "name": "",
          "type": "uint256"
        }
      ],
      "stateMutability": "view",
      "type": "function",
      "constant": true
    },
    {
      "inputs": [],
      "name": "decimals",
      "outputs": [
        {
          "internalType": "uint8",
          "name": "",
          "type": "uint8"
        }
      ],
      "stateMutability": "view",
      "type": "function",
      "constant": true
    },
    {
      "inputs": [
        {
          "internalType": "address",
          "name": "spender",
          "type": "address"
        },
        {
          "internalType": "uint256",
          "name": "subtractedValue",
          "type": "uint256"
        }
      ],
      "name": "decreaseAllowance",
      "outputs": [
        {
          "internalType": "bool",
          "name": "",
          "type": "bool"
        }
      ],
      "stateMutability": "nonpayable",
      "type": "function"
    },
    {
      "inputs": [
        {
          "internalType": "uint256",
          "name": "amount",
          "type": "uint256"
        },
        {
          "internalType": "bytes32",
          "name": "ticker",
          "type": "bytes32"
        }
      ],
      "name": "deposit",
      "outputs": [],
      "stateMutability": "nonpayable",
      "type": "function"
    },
    {
      "inputs": [
        {
          "internalType": "address",
          "name": "spender",
          "type": "address"
        },
        {
          "internalType": "uint256",
          "name": "addedValue",
          "type": "uint256"
        }
      ],
      "name": "increaseAllowance",
      "outputs": [
        {
          "internalType": "bool",
          "name": "",
          "type": "bool"
        }
      ],
      "stateMutability": "nonpayable",
      "type": "function"
    },
    {
      "inputs": [],
      "name": "karmaOwner",
      "outputs": [
        {
          "internalType": "address",
          "name": "",
          "type": "address"
        }
      ],
      "stateMutability": "view",
      "type": "function",
      "constant": true
    },
    {
      "inputs": [],
      "name": "name",
      "outputs": [
        {
          "internalType": "string",
          "name": "",
          "type": "string"
        }
      ],
      "stateMutability": "view",
      "type": "function",
      "constant": true
    },
    {
      "inputs": [],
      "name": "symbol",
      "outputs": [
        {
          "internalType": "string",
          "name": "",
          "type": "string"
        }
      ],
      "stateMutability": "view",
      "type": "function",
      "constant": true
    },
    {
      "inputs": [
        {
          "internalType": "uint256",
          "name": "",
          "type": "uint256"
        }
      ],
      "name": "tokenList",
      "outputs": [
        {
          "internalType": "bytes32",
          "name": "",
          "type": "bytes32"
        }
      ],
      "stateMutability": "view",
      "type": "function",
      "constant": true
    },
    {
      "inputs": [
        {
          "internalType": "bytes32",
          "name": "",
          "type": "bytes32"
        }
      ],
      "name": "tokenMapping",
      "outputs": [
        {
          "internalType": "bytes32",
          "name": "ticker",
          "type": "bytes32"
        },
        {
          "internalType": "address",
          "name": "tokenAddress",
          "type": "address"
        }
      ],
      "stateMutability": "view",
      "type": "function",
      "constant": true
    },
    {
      "inputs": [],
      "name": "totalSupply",
      "outputs": [
        {
          "internalType": "uint256",
          "name": "",
          "type": "uint256"
        }
      ],
      "stateMutability": "view",
      "type": "function",
      "constant": true
    },
    {
      "inputs": [
        {
          "internalType": "address",
          "name": "recipient",
          "type": "address"
        },
        {
          "internalType": "uint256",
          "name": "amount",
          "type": "uint256"
        }
      ],
      "name": "transfer",
      "outputs": [
        {
          "internalType": "bool",
          "name": "",
          "type": "bool"
        }
      ],
      "stateMutability": "nonpayable",
      "type": "function"
    },
    {
      "inputs": [
        {
          "internalType": "address",
          "name": "sender",
          "type": "address"
        },
        {
          "internalType": "address",
          "name": "recipient",
          "type": "address"
        },
        {
          "internalType": "uint256",
          "name": "amount",
          "type": "uint256"
        }
      ],
      "name": "transferFrom",
      "outputs": [
        {
          "internalType": "bool",
          "name": "",
          "type": "bool"
        }
      ],
      "stateMutability": "nonpayable",
      "type": "function"
    },
    {
      "inputs": [],
      "name": "depositMATIC",
      "outputs": [],
      "stateMutability": "payable",
      "type": "function",
      "payable": true
    },
    {
      "inputs": [
        {
          "internalType": "uint256",
          "name": "amount",
          "type": "uint256"
        }
      ],
      "name": "withdrawMATIC",
      "outputs": [],
      "stateMutability": "nonpayable",
      "type": "function"
    },
    {
      "inputs": [
        {
          "internalType": "address",
          "name": "to",
          "type": "address"
        },
        {
          "internalType": "uint256",
          "name": "amount",
          "type": "uint256"
        }
      ],
      "name": "sendCharity",
      "outputs": [],
      "stateMutability": "nonpayable",
      "type": "function"
    }
  ],
  "bytecode": "0x60806040523480156200001157600080fd5b506040518060400160405280600981526020017f4b61726d61436f696e00000000000000000000000000000000000000000000008152506040518060400160405280600281526020017f4b43000000000000000000000000000000000000000000000000000000000000815250816006908051906020019062000096929190620000b8565b508060079080519060200190620000af929190620000b8565b505050620001cd565b828054620000c69062000197565b90600052602060002090601f016020900481019282620000ea576000855562000136565b82601f106200010557805160ff191683800117855562000136565b8280016001018555821562000136579182015b828111156200013557825182559160200191906001019062000118565b5b50905062000145919062000149565b5090565b5b80821115620001645760008160009055506001016200014a565b5090565b7f4e487b7100000000000000000000000000000000000000000000000000000000600052602260045260246000fd5b60006002820490506001821680620001b057607f821691505b60208210811415620001c757620001c662000168565b5b50919050565b6125e680620001dd6000396000f3fe60806040526004361061012a5760003560e01c806370a08231116100ab5780639ead72221161006f5780639ead72221461040e578063a457c2d71461044b578063a9059cbb14610488578063c9630cb0146104c5578063cf079b5a146104ee578063dd62ed3e146105175761012a565b806370a08231146103175780637cb94b5c14610354578063816837e31461039157806395d89b41146103ba5780639776aacf146103e55761012a565b806323b872dd116100f257806323b872dd14610209578063313ce5671461024657806339509351146102715780634cff812e146102ae578063667cb4ba146102d95761012a565b806306fdde031461012f578063095ea7b31461015a57806318160ddd146101975780631d9053e0146101c25780631f14df69146101cc575b600080fd5b34801561013b57600080fd5b50610144610554565b604051610151919061196d565b60405180910390f35b34801561016657600080fd5b50610181600480360381019061017c9190611a28565b6105e6565b60405161018e9190611a83565b60405180910390f35b3480156101a357600080fd5b506101ac610604565b6040516101b99190611aad565b60405180910390f35b6101ca61060e565b005b3480156101d857600080fd5b506101f360048036038101906101ee9190611afe565b610707565b6040516102009190611aad565b60405180910390f35b34801561021557600080fd5b50610230600480360381019061022b9190611b3e565b61072c565b60405161023d9190611a83565b60405180910390f35b34801561025257600080fd5b5061025b610824565b6040516102689190611bad565b60405180910390f35b34801561027d57600080fd5b5061029860048036038101906102939190611a28565b61082d565b6040516102a59190611a83565b60405180910390f35b3480156102ba57600080fd5b506102c36108d9565b6040516102d09190611bd7565b60405180910390f35b3480156102e557600080fd5b5061030060048036038101906102fb9190611bf2565b6108f1565b60405161030e929190611c2e565b60405180910390f35b34801561032357600080fd5b5061033e60048036038101906103399190611c57565b610935565b60405161034b9190611aad565b60405180910390f35b34801561036057600080fd5b5061037b60048036038101906103769190611c57565b61097e565b6040516103889190611aad565b60405180910390f35b34801561039d57600080fd5b506103b860048036038101906103b39190611c84565b610996565b005b3480156103c657600080fd5b506103cf610b43565b6040516103dc919061196d565b60405180910390f35b3480156103f157600080fd5b5061040c60048036038101906104079190611cb1565b610bd5565b005b34801561041a57600080fd5b5061043560048036038101906104309190611c84565b610c93565b6040516104429190611cf1565b60405180910390f35b34801561045757600080fd5b50610472600480360381019061046d9190611a28565b610cb7565b60405161047f9190611a83565b60405180910390f35b34801561049457600080fd5b506104af60048036038101906104aa9190611a28565b610da2565b6040516104bc9190611a83565b60405180910390f35b3480156104d157600080fd5b506104ec60048036038101906104e79190611d0c565b610dc0565b005b3480156104fa57600080fd5b5061051560048036038101906105109190611a28565b610f31565b005b34801561052357600080fd5b5061053e60048036038101906105399190611d4c565b6113aa565b60405161054b9190611aad565b60405180910390f35b60606006805461056390611dbb565b80601f016020809104026020016040519081016040528092919081815260200182805461058f90611dbb565b80156105dc5780601f106105b1576101008083540402835291602001916105dc565b820191906000526020600020905b8154815290600101906020018083116105bf57829003601f168201915b5050505050905090565b60006105fa6105f3611431565b8484611439565b6001905092915050565b6000600554905090565b61069134600260003373ffffffffffffffffffffffffffffffffffffffff1673ffffffffffffffffffffffffffffffffffffffff16815260200190815260200160002060007f4d4154494300000000000000000000000000000000000000000000000000000081526020019081526020016000205461160490919063ffffffff16565b600260003373ffffffffffffffffffffffffffffffffffffffff1673ffffffffffffffffffffffffffffffffffffffff16815260200190815260200160002060007f4d41544943000000000000000000000000000000000000000000000000000000815260200190815260200160002081905550565b6002602052816000526040600020602052806000526040600020600091509150505481565b600061073984848461161a565b6000600460008673ffffffffffffffffffffffffffffffffffffffff1673ffffffffffffffffffffffffffffffffffffffff1681526020019081526020016000206000610784611431565b73ffffffffffffffffffffffffffffffffffffffff1673ffffffffffffffffffffffffffffffffffffffff16815260200190815260200160002054905082811015610804576040517f08c379a00000000000000000000000000000000000000000000000000000000081526004016107fb90611e5f565b60405180910390fd5b61081885610810611431565b858403611439565b60019150509392505050565b60006012905090565b60006108cf61083a611431565b848460046000610848611431565b73ffffffffffffffffffffffffffffffffffffffff1673ffffffffffffffffffffffffffffffffffffffff16815260200190815260200160002060008873ffffffffffffffffffffffffffffffffffffffff1673ffffffffffffffffffffffffffffffffffffffff168152602001908152602001600020546108ca9190611eae565b611439565b6001905092915050565b73453b0255fb8ac91fa5d6606d1647df201fa6c7d581565b60006020528060005260406000206000915090508060000154908060010160009054906101000a900473ffffffffffffffffffffffffffffffffffffffff16905082565b6000600360008373ffffffffffffffffffffffffffffffffffffffff1673ffffffffffffffffffffffffffffffffffffffff168152602001908152602001600020549050919050565b60086020528060005260406000206000915090505481565b80600260003373ffffffffffffffffffffffffffffffffffffffff1673ffffffffffffffffffffffffffffffffffffffff16815260200190815260200160002060007f4d415449430000000000000000000000000000000000000000000000000000008152602001908152602001600020541015610a49576040517f08c379a0000000000000000000000000000000000000000000000000000000008152600401610a4090611f50565b60405180910390fd5b610acc81600260003373ffffffffffffffffffffffffffffffffffffffff1673ffffffffffffffffffffffffffffffffffffffff16815260200190815260200160002060007f4d4154494300000000000000000000000000000000000000000000000000000081526020019081526020016000205461189e90919063ffffffff16565b600260003373ffffffffffffffffffffffffffffffffffffffff1673ffffffffffffffffffffffffffffffffffffffff16815260200190815260200160002060007f4d4154494300000000000000000000000000000000000000000000000000000081526020019081526020016000208190555050565b606060078054610b5290611dbb565b80601f0160208091040260200160405190810160405280929190818152602001828054610b7e90611dbb565b8015610bcb5780601f10610ba057610100808354040283529160200191610bcb565b820191906000526020600020905b815481529060010190602001808311610bae57829003601f168201915b5050505050905090565b60405180604001604052808381526020018273ffffffffffffffffffffffffffffffffffffffff168152506000808481526020019081526020016000206000820151816000015560208201518160010160006101000a81548173ffffffffffffffffffffffffffffffffffffffff021916908373ffffffffffffffffffffffffffffffffffffffff16021790555090505060018290806001815401808255809150506001900390600052602060002001600090919091909150555050565b60018181548110610ca357600080fd5b906000526020600020016000915090505481565b60008060046000610cc6611431565b73ffffffffffffffffffffffffffffffffffffffff1673ffffffffffffffffffffffffffffffffffffffff16815260200190815260200160002060008573ffffffffffffffffffffffffffffffffffffffff1673ffffffffffffffffffffffffffffffffffffffff16815260200190815260200160002054905082811015610d83576040517f08c379a0000000000000000000000000000000000000000000000000000000008152600401610d7a90611fe2565b60405180910390fd5b610d97610d8e611431565b85858403611439565b600191505092915050565b6000610db6610daf611431565b848461161a565b6001905092915050565b60008082815260200190815260200160002060010160009054906101000a900473ffffffffffffffffffffffffffffffffffffffff1673ffffffffffffffffffffffffffffffffffffffff166323b872dd3330856040518463ffffffff1660e01b8152600401610e3293929190612002565b6020604051808303816000875af1158015610e51573d6000803e3d6000fd5b505050506040513d601f19601f82011682018060405250810190610e759190612065565b50610ed982600260003373ffffffffffffffffffffffffffffffffffffffff1673ffffffffffffffffffffffffffffffffffffffff16815260200190815260200160002060008481526020019081526020016000205461160490919063ffffffff16565b600260003373ffffffffffffffffffffffffffffffffffffffff1673ffffffffffffffffffffffffffffffffffffffff1681526020019081526020016000206000838152602001908152602001600020819055505050565b73453b0255fb8ac91fa5d6606d1647df201fa6c7d573ffffffffffffffffffffffffffffffffffffffff168273ffffffffffffffffffffffffffffffffffffffff1614610fb3576040517f08c379a0000000000000000000000000000000000000000000000000000000008152600401610faa90612104565b60405180910390fd5b6001600260003373ffffffffffffffffffffffffffffffffffffffff1673ffffffffffffffffffffffffffffffffffffffff16815260200190815260200160002060007f4d415449430000000000000000000000000000000000000000000000000000008152602001908152602001600020541015611067576040517f08c379a000000000000000000000000000000000000000000000000000000000815260040161105e90612196565b60405180910390fd5b60018110156110ab576040517f08c379a00000000000000000000000000000000000000000000000000000000081526004016110a290612228565b60405180910390fd5b61112e81600260003373ffffffffffffffffffffffffffffffffffffffff1673ffffffffffffffffffffffffffffffffffffffff16815260200190815260200160002060007f4d4154494300000000000000000000000000000000000000000000000000000081526020019081526020016000205461160490919063ffffffff16565b600260003373ffffffffffffffffffffffffffffffffffffffff1673ffffffffffffffffffffffffffffffffffffffff16815260200190815260200160002060007f4d4154494300000000000000000000000000000000000000000000000000000081526020019081526020016000208190555061122581600260008573ffffffffffffffffffffffffffffffffffffffff1673ffffffffffffffffffffffffffffffffffffffff16815260200190815260200160002060007f4d4154494300000000000000000000000000000000000000000000000000000081526020019081526020016000205461189e90919063ffffffff16565b600260008473ffffffffffffffffffffffffffffffffffffffff1673ffffffffffffffffffffffffffffffffffffffff16815260200190815260200160002060007f4d415449430000000000000000000000000000000000000000000000000000008152602001908152602001600020819055506112fe60036112f083600860003373ffffffffffffffffffffffffffffffffffffffff1673ffffffffffffffffffffffffffffffffffffffff1681526020019081526020016000205461160490919063ffffffff16565b6118b490919063ffffffff16565b600860003373ffffffffffffffffffffffffffffffffffffffff1673ffffffffffffffffffffffffffffffffffffffff168152602001908152602001600020819055508173ffffffffffffffffffffffffffffffffffffffff163373ffffffffffffffffffffffffffffffffffffffff167fddf252ad1be2c89b69c2b068fc378daa952ba7f163c4a11628f55a4df523b3ef8360405161139e9190611aad565b60405180910390a35050565b6000600460008473ffffffffffffffffffffffffffffffffffffffff1673ffffffffffffffffffffffffffffffffffffffff16815260200190815260200160002060008373ffffffffffffffffffffffffffffffffffffffff1673ffffffffffffffffffffffffffffffffffffffff16815260200190815260200160002054905092915050565b600033905090565b600073ffffffffffffffffffffffffffffffffffffffff168373ffffffffffffffffffffffffffffffffffffffff1614156114a9576040517f08c379a00000000000000000000000000000000000000000000000000000000081526004016114a0906122ba565b60405180910390fd5b600073ffffffffffffffffffffffffffffffffffffffff168273ffffffffffffffffffffffffffffffffffffffff161415611519576040517f08c379a00000000000000000000000000000000000000000000000000000000081526004016115109061234c565b60405180910390fd5b80600460008573ffffffffffffffffffffffffffffffffffffffff1673ffffffffffffffffffffffffffffffffffffffff16815260200190815260200160002060008473ffffffffffffffffffffffffffffffffffffffff1673ffffffffffffffffffffffffffffffffffffffff168152602001908152602001600020819055508173ffffffffffffffffffffffffffffffffffffffff168373ffffffffffffffffffffffffffffffffffffffff167f8c5be1e5ebec7d5bd14f71427d1e84f3dd0314c0f7b2291e5b200ac8c7c3b925836040516115f79190611aad565b60405180910390a3505050565b600081836116129190611eae565b905092915050565b600073ffffffffffffffffffffffffffffffffffffffff168373ffffffffffffffffffffffffffffffffffffffff16141561168a576040517f08c379a0000000000000000000000000000000000000000000000000000000008152600401611681906123de565b60405180910390fd5b600073ffffffffffffffffffffffffffffffffffffffff168273ffffffffffffffffffffffffffffffffffffffff1614156116fa576040517f08c379a00000000000000000000000000000000000000000000000000000000081526004016116f190612470565b60405180910390fd5b6117058383836118ca565b6000600360008573ffffffffffffffffffffffffffffffffffffffff1673ffffffffffffffffffffffffffffffffffffffff1681526020019081526020016000205490508181101561178c576040517f08c379a000000000000000000000000000000000000000000000000000000000815260040161178390612502565b60405180910390fd5b818103600360008673ffffffffffffffffffffffffffffffffffffffff1673ffffffffffffffffffffffffffffffffffffffff1681526020019081526020016000208190555081600360008573ffffffffffffffffffffffffffffffffffffffff1673ffffffffffffffffffffffffffffffffffffffff16815260200190815260200160002060008282546118219190611eae565b925050819055508273ffffffffffffffffffffffffffffffffffffffff168473ffffffffffffffffffffffffffffffffffffffff167fddf252ad1be2c89b69c2b068fc378daa952ba7f163c4a11628f55a4df523b3ef846040516118859190611aad565b60405180910390a36118988484846118cf565b50505050565b600081836118ac9190612522565b905092915050565b600081836118c29190612556565b905092915050565b505050565b505050565b600081519050919050565b600082825260208201905092915050565b60005b8381101561190e5780820151818401526020810190506118f3565b8381111561191d576000848401525b50505050565b6000601f19601f8301169050919050565b600061193f826118d4565b61194981856118df565b93506119598185602086016118f0565b61196281611923565b840191505092915050565b600060208201905081810360008301526119878184611934565b905092915050565b600080fd5b600073ffffffffffffffffffffffffffffffffffffffff82169050919050565b60006119bf82611994565b9050919050565b6119cf816119b4565b81146119da57600080fd5b50565b6000813590506119ec816119c6565b92915050565b6000819050919050565b611a05816119f2565b8114611a1057600080fd5b50565b600081359050611a22816119fc565b92915050565b60008060408385031215611a3f57611a3e61198f565b5b6000611a4d858286016119dd565b9250506020611a5e85828601611a13565b9150509250929050565b60008115159050919050565b611a7d81611a68565b82525050565b6000602082019050611a986000830184611a74565b92915050565b611aa7816119f2565b82525050565b6000602082019050611ac26000830184611a9e565b92915050565b6000819050919050565b611adb81611ac8565b8114611ae657600080fd5b50565b600081359050611af881611ad2565b92915050565b60008060408385031215611b1557611b1461198f565b5b6000611b23858286016119dd565b9250506020611b3485828601611ae9565b9150509250929050565b600080600060608486031215611b5757611b5661198f565b5b6000611b65868287016119dd565b9350506020611b76868287016119dd565b9250506040611b8786828701611a13565b9150509250925092565b600060ff82169050919050565b611ba781611b91565b82525050565b6000602082019050611bc26000830184611b9e565b92915050565b611bd1816119b4565b82525050565b6000602082019050611bec6000830184611bc8565b92915050565b600060208284031215611c0857611c0761198f565b5b6000611c1684828501611ae9565b91505092915050565b611c2881611ac8565b82525050565b6000604082019050611c436000830185611c1f565b611c506020830184611bc8565b9392505050565b600060208284031215611c6d57611c6c61198f565b5b6000611c7b848285016119dd565b91505092915050565b600060208284031215611c9a57611c9961198f565b5b6000611ca884828501611a13565b91505092915050565b60008060408385031215611cc857611cc761198f565b5b6000611cd685828601611ae9565b9250506020611ce7858286016119dd565b9150509250929050565b6000602082019050611d066000830184611c1f565b92915050565b60008060408385031215611d2357611d2261198f565b5b6000611d3185828601611a13565b9250506020611d4285828601611ae9565b9150509250929050565b60008060408385031215611d6357611d6261198f565b5b6000611d71858286016119dd565b9250506020611d82858286016119dd565b9150509250929050565b7f4e487b7100000000000000000000000000000000000000000000000000000000600052602260045260246000fd5b60006002820490506001821680611dd357607f821691505b60208210811415611de757611de6611d8c565b5b50919050565b7f45524332303a207472616e7366657220616d6f756e742065786365656473206160008201527f6c6c6f77616e6365000000000000000000000000000000000000000000000000602082015250565b6000611e496028836118df565b9150611e5482611ded565b604082019050919050565b60006020820190508181036000830152611e7881611e3c565b9050919050565b7f4e487b7100000000000000000000000000000000000000000000000000000000600052601160045260246000fd5b6000611eb9826119f2565b9150611ec4836119f2565b9250827fffffffffffffffffffffffffffffffffffffffffffffffffffffffffffffffff03821115611ef957611ef8611e7f565b5b828201905092915050565b7f496e73756666696369656e742062616c616e6365000000000000000000000000600082015250565b6000611f3a6014836118df565b9150611f4582611f04565b602082019050919050565b60006020820190508181036000830152611f6981611f2d565b9050919050565b7f45524332303a2064656372656173656420616c6c6f77616e63652062656c6f7760008201527f207a65726f000000000000000000000000000000000000000000000000000000602082015250565b6000611fcc6025836118df565b9150611fd782611f70565b604082019050919050565b60006020820190508181036000830152611ffb81611fbf565b9050919050565b60006060820190506120176000830186611bc8565b6120246020830185611bc8565b6120316040830184611a9e565b949350505050565b61204281611a68565b811461204d57600080fd5b50565b60008151905061205f81612039565b92915050565b60006020828403121561207b5761207a61198f565b5b600061208984828501612050565b91505092915050565b7f596f752063616e206f6e6c792073656e64206368617269747920746f2074686560008201527f2063686172697479206164647265737300000000000000000000000000000000602082015250565b60006120ee6030836118df565b91506120f982612092565b604082019050919050565b6000602082019050818103600083015261211d816120e1565b9050919050565b7f5468652073656e6465722068617320746f2068617665206174206c656173742060008201527f31204d4154494320696e20686973206163636f756e7400000000000000000000602082015250565b60006121806036836118df565b915061218b82612124565b604082019050919050565b600060208201905081810360008301526121af81612173565b9050919050565b7f546865206d696e696d756d206368617269747920616d6f756e7420776520616360008201527f636570742069732031204d415449432100000000000000000000000000000000602082015250565b60006122126030836118df565b915061221d826121b6565b604082019050919050565b6000602082019050818103600083015261224181612205565b9050919050565b7f45524332303a20617070726f76652066726f6d20746865207a65726f2061646460008201527f7265737300000000000000000000000000000000000000000000000000000000602082015250565b60006122a46024836118df565b91506122af82612248565b604082019050919050565b600060208201905081810360008301526122d381612297565b9050919050565b7f45524332303a20617070726f766520746f20746865207a65726f20616464726560008201527f7373000000000000000000000000000000000000000000000000000000000000602082015250565b60006123366022836118df565b9150612341826122da565b604082019050919050565b6000602082019050818103600083015261236581612329565b9050919050565b7f45524332303a207472616e736665722066726f6d20746865207a65726f20616460008201527f6472657373000000000000000000000000000000000000000000000000000000602082015250565b60006123c86025836118df565b91506123d38261236c565b604082019050919050565b600060208201905081810360008301526123f7816123bb565b9050919050565b7f45524332303a207472616e7366657220746f20746865207a65726f206164647260008201527f6573730000000000000000000000000000000000000000000000000000000000602082015250565b600061245a6023836118df565b9150612465826123fe565b604082019050919050565b600060208201905081810360008301526124898161244d565b9050919050565b7f45524332303a207472616e7366657220616d6f756e742065786365656473206260008201527f616c616e63650000000000000000000000000000000000000000000000000000602082015250565b60006124ec6026836118df565b91506124f782612490565b604082019050919050565b6000602082019050818103600083015261251b816124df565b9050919050565b600061252d826119f2565b9150612538836119f2565b92508282101561254b5761254a611e7f565b5b828203905092915050565b6000612561826119f2565b915061256c836119f2565b9250817fffffffffffffffffffffffffffffffffffffffffffffffffffffffffffffffff04831182151516156125a5576125a4611e7f565b5b82820290509291505056fea2646970667358221220c8107473ac733bb7ec00038205b2b08e9e823765e75e27bb0e32b61829f7373064736f6c634300080b0033",
  "immutableReferences": {},
  "source": "// SPDX-License-Identifier: MIT\r\n\r\npragma solidity >=0.4.22 <0.9.0;\r\n\r\nimport \"../node_modules/@openzeppelin/contracts/token/ERC20/ERC20.sol\";\r\nimport \"../node_modules/@openzeppelin/contracts/utils/math/SafeMath.sol\";\r\nimport \"./TokenWallet.sol\";\r\n\r\ncontract Charity is  TokenWallet, ERC20{\r\n\r\n    using SafeMath for uint256;\r\n\r\n    address public constant karmaOwner = 0x453b0255FB8aC91FA5D6606D1647DF201FA6c7d5; // This is an Alchemy Polygon Mumbai Address\r\n\r\n    constructor() ERC20 (\"KarmaCoin\", \"KC\"){\r\n    }\r\n\r\n    mapping(address => uint256) public KarmaBalance;\r\n\r\n\r\n    function depositMATIC() public payable{\r\n    balances[msg.sender][bytes32(\"MATIC\")] = balances[msg.sender][bytes32(\"MATIC\")].add(msg.value);\r\n    }\r\n\r\n    function withdrawMATIC(uint256 amount) public {\r\n        require(balances[msg.sender][\"MATIC\"] >= amount, \"Insufficient balance\");\r\n        balances[msg.sender][bytes32(\"MATIC\")] = balances[msg.sender][bytes32(\"MATIC\")].sub(amount);\r\n      //  msg.sender.call{value:amount}(\"\");\r\n    }\r\n\r\n    function sendCharity(address to, uint256 amount) public {\r\n        require(to == karmaOwner, \"You can only send charity to the charity address\");\r\n        require(balances[msg.sender][\"MATIC\"] >= 1, \"The sender has to have at least 1 MATIC in his account\");\r\n        require(amount >= 1, \"The minimum charity amount we accept is 1 MATIC!\");\r\n        \r\n        balances[msg.sender][\"MATIC\"] = balances[msg.sender][\"MATIC\"].add(amount);\r\n        balances[to][\"MATIC\"] = balances[to][\"MATIC\"].sub(amount);\r\n\r\n        KarmaBalance[msg.sender] = KarmaBalance[msg.sender].add(amount).mul(3);\r\n\r\n        emit Transfer(msg.sender, to, amount);\r\n    }\r\n\r\n\r\n\r\n}",
  "sourcePath": "C:/Users/Riki/Desktop/Solidity/Karma Coin/contracts/Charity.sol",
  "compiler": {
    "name": "solc",
    "version": "0.8.11+commit.d7f03943.Emscripten.clang"
  },
  "schemaVersion": "3.3.4",
  "updatedAt": "2022-02-06T20:58:45.887Z",
  "networkType": "ethereum",
  "devdoc": {
    "kind": "dev",
    "methods": {
      "allowance(address,address)": {
        "details": "See {IERC20-allowance}."
      },
      "approve(address,uint256)": {
        "details": "See {IERC20-approve}. Requirements: - `spender` cannot be the zero address."
      },
      "balanceOf(address)": {
        "details": "See {IERC20-balanceOf}."
      },
      "decimals()": {
        "details": "Returns the number of decimals used to get its user representation. For example, if `decimals` equals `2`, a balance of `505` tokens should be displayed to a user as `5.05` (`505 / 10 ** 2`). Tokens usually opt for a value of 18, imitating the relationship between Ether and Wei. This is the value {ERC20} uses, unless this function is overridden; NOTE: This information is only used for _display_ purposes: it in no way affects any of the arithmetic of the contract, including {IERC20-balanceOf} and {IERC20-transfer}."
      },
      "decreaseAllowance(address,uint256)": {
        "details": "Atomically decreases the allowance granted to `spender` by the caller. This is an alternative to {approve} that can be used as a mitigation for problems described in {IERC20-approve}. Emits an {Approval} event indicating the updated allowance. Requirements: - `spender` cannot be the zero address. - `spender` must have allowance for the caller of at least `subtractedValue`."
      },
      "increaseAllowance(address,uint256)": {
        "details": "Atomically increases the allowance granted to `spender` by the caller. This is an alternative to {approve} that can be used as a mitigation for problems described in {IERC20-approve}. Emits an {Approval} event indicating the updated allowance. Requirements: - `spender` cannot be the zero address."
      },
      "name()": {
        "details": "Returns the name of the token."
      },
      "symbol()": {
        "details": "Returns the symbol of the token, usually a shorter version of the name."
      },
      "totalSupply()": {
        "details": "See {IERC20-totalSupply}."
      },
      "transfer(address,uint256)": {
        "details": "See {IERC20-transfer}. Requirements: - `recipient` cannot be the zero address. - the caller must have a balance of at least `amount`."
      },
      "transferFrom(address,address,uint256)": {
        "details": "See {IERC20-transferFrom}. Emits an {Approval} event indicating the updated allowance. This is not required by the EIP. See the note at the beginning of {ERC20}. Requirements: - `sender` and `recipient` cannot be the zero address. - `sender` must have a balance of at least `amount`. - the caller must have allowance for ``sender``'s tokens of at least `amount`."
      }
    },
    "version": 1
  },
  "userdoc": {
    "kind": "user",
    "methods": {},
    "version": 1
  }
}