{
  "contractName": "Wallet",
  "abi": [
    {
      "inputs": [
        {
          "internalType": "address",
          "name": "",
          "type": "address"
        },
        {
          "internalType": "bytes32",
          "name": "",
          "type": "bytes32"
        }
      ],
      "name": "balances",
      "outputs": [
        {
          "internalType": "uint256",
          "name": "",
          "type": "uint256"
        }
      ],
      "stateMutability": "view",
      "type": "function",
      "constant": true
    },
    {
      "inputs": [
        {
          "internalType": "uint256",
          "name": "",
          "type": "uint256"
        }
      ],
      "name": "tokenList",
      "outputs": [
        {
          "internalType": "bytes32",
          "name": "",
          "type": "bytes32"
        }
      ],
      "stateMutability": "view",
      "type": "function",
      "constant": true
    },
    {
      "inputs": [
        {
          "internalType": "bytes32",
          "name": "",
          "type": "bytes32"
        }
      ],
      "name": "tokenMapping",
      "outputs": [
        {
          "internalType": "bytes32",
          "name": "ticker",
          "type": "bytes32"
        },
        {
          "internalType": "address",
          "name": "tokenAddress",
          "type": "address"
        }
      ],
      "stateMutability": "view",
      "type": "function",
      "constant": true
    },
    {
      "inputs": [
        {
          "internalType": "uint256",
          "name": "amount",
          "type": "uint256"
        },
        {
          "internalType": "bytes32",
          "name": "ticker",
          "type": "bytes32"
        }
      ],
      "name": "deposit",
      "outputs": [],
      "stateMutability": "nonpayable",
      "type": "function"
    },
    {
      "inputs": [
        {
          "internalType": "bytes32",
          "name": "ticker",
          "type": "bytes32"
        },
        {
          "internalType": "address",
          "name": "tokenAddress",
          "type": "address"
        }
      ],
      "name": "addToken",
      "outputs": [],
      "stateMutability": "nonpayable",
      "type": "function"
    }
  ],
  "bytecode": "0x608060405234801561001057600080fd5b506107c3806100206000396000f3fe608060405234801561001057600080fd5b50600436106100575760003560e01c80631f14df691461005c578063667cb4ba1461008c5780639776aacf146100bd5780639ead7222146100d9578063c9630cb014610109575b600080fd5b61007660048036038101906100719190610490565b610125565b60405161008391906104e9565b60405180910390f35b6100a660048036038101906100a19190610504565b61014a565b6040516100b492919061054f565b60405180910390f35b6100d760048036038101906100d29190610578565b61018e565b005b6100f360048036038101906100ee91906105e4565b61024c565b6040516101009190610611565b60405180910390f35b610123600480360381019061011e919061062c565b610270565b005b6002602052816000526040600020602052806000526040600020600091509150505481565b60006020528060005260406000206000915090508060000154908060010160009054906101000a900473ffffffffffffffffffffffffffffffffffffffff16905082565b60405180604001604052808381526020018273ffffffffffffffffffffffffffffffffffffffff168152506000808481526020019081526020016000206000820151816000015560208201518160010160006101000a81548173ffffffffffffffffffffffffffffffffffffffff021916908373ffffffffffffffffffffffffffffffffffffffff16021790555090505060018290806001815401808255809150506001900390600052602060002001600090919091909150555050565b6001818154811061025c57600080fd5b906000526020600020016000915090505481565b60008082815260200190815260200160002060010160009054906101000a900473ffffffffffffffffffffffffffffffffffffffff1673ffffffffffffffffffffffffffffffffffffffff166323b872dd3330856040518463ffffffff1660e01b81526004016102e29392919061066c565b6020604051808303816000875af1158015610301573d6000803e3d6000fd5b505050506040513d601f19601f8201168201806040525081019061032591906106db565b5061038982600260003373ffffffffffffffffffffffffffffffffffffffff1673ffffffffffffffffffffffffffffffffffffffff1681526020019081526020016000206000848152602001908152602001600020546103e190919063ffffffff16565b600260003373ffffffffffffffffffffffffffffffffffffffff1673ffffffffffffffffffffffffffffffffffffffff1681526020019081526020016000206000838152602001908152602001600020819055505050565b600081836103ef9190610737565b905092915050565b600080fd5b600073ffffffffffffffffffffffffffffffffffffffff82169050919050565b6000610427826103fc565b9050919050565b6104378161041c565b811461044257600080fd5b50565b6000813590506104548161042e565b92915050565b6000819050919050565b61046d8161045a565b811461047857600080fd5b50565b60008135905061048a81610464565b92915050565b600080604083850312156104a7576104a66103f7565b5b60006104b585828601610445565b92505060206104c68582860161047b565b9150509250929050565b6000819050919050565b6104e3816104d0565b82525050565b60006020820190506104fe60008301846104da565b92915050565b60006020828403121561051a576105196103f7565b5b60006105288482850161047b565b91505092915050565b61053a8161045a565b82525050565b6105498161041c565b82525050565b60006040820190506105646000830185610531565b6105716020830184610540565b9392505050565b6000806040838503121561058f5761058e6103f7565b5b600061059d8582860161047b565b92505060206105ae85828601610445565b9150509250929050565b6105c1816104d0565b81146105cc57600080fd5b50565b6000813590506105de816105b8565b92915050565b6000602082840312156105fa576105f96103f7565b5b6000610608848285016105cf565b91505092915050565b60006020820190506106266000830184610531565b92915050565b60008060408385031215610643576106426103f7565b5b6000610651858286016105cf565b92505060206106628582860161047b565b9150509250929050565b60006060820190506106816000830186610540565b61068e6020830185610540565b61069b60408301846104da565b949350505050565b60008115159050919050565b6106b8816106a3565b81146106c357600080fd5b50565b6000815190506106d5816106af565b92915050565b6000602082840312156106f1576106f06103f7565b5b60006106ff848285016106c6565b91505092915050565b7f4e487b7100000000000000000000000000000000000000000000000000000000600052601160045260246000fd5b6000610742826104d0565b915061074d836104d0565b9250827fffffffffffffffffffffffffffffffffffffffffffffffffffffffffffffffff0382111561078257610781610708565b5b82820190509291505056fea26469706673582212209cf76bcbe25a8a92b0e8b0902b54890656b7b5fc663a1bd1c2db0b37c449f15464736f6c634300080b0033",
  "immutableReferences": {},
  "source": "// SPDX-License-Identifier: MIT\r\npragma solidity >=0.4.22 <0.9.0;\r\n\r\nimport \"../node_modules/@openzeppelin/contracts/utils/math/SafeMath.sol\";\r\nimport \"../node_modules/@openzeppelin/contracts/access/Ownable.sol\";\r\nimport \"../node_modules/@openzeppelin/contracts/token/ERC20/ERC20.sol\";\r\n\r\ncontract Wallet {\r\n\r\n    using SafeMath for uint;\r\n\r\n    struct Token {\r\n    bytes32 ticker;\r\n    address tokenAddress;\r\n    }\r\n    mapping(bytes32 => Token) public tokenMapping;\r\n    bytes32[] public tokenList;\r\n\r\n    mapping(address => mapping(bytes32 => uint256)) public balances;\r\n\r\n    modifier tokenExist(bytes32 ticker){\r\n        require(tokenMapping[ticker].tokenAddress != address(0), \"Token does not exist\");\r\n        _;\r\n    }\r\n\r\n    function deposit(uint amount, bytes32 ticker) external {\r\n        //require(tokenMapping[ticker].tokenAddress != address(0));\r\n        \r\n        IERC20(tokenMapping[ticker].tokenAddress).transferFrom(msg.sender, address(this), amount);\r\n        balances[msg.sender][ticker] = balances[msg.sender][ticker].add(amount);\r\n\r\n    }\r\n\r\n    \r\n    function addToken(bytes32 ticker, address tokenAddress)  public {\r\n        tokenMapping[ticker] = Token(ticker, tokenAddress);\r\n        tokenList.push(ticker);\r\n    }\r\n\r\n}",
  "sourcePath": "C:/Users/Riki/Desktop/Solidity/Karma Coin/contracts/TokenWallet.sol",
  "compiler": {
    "name": "solc",
    "version": "0.8.11+commit.d7f03943.Emscripten.clang"
  },
  "schemaVersion": "3.3.4",
  "updatedAt": "2022-02-06T08:50:03.575Z",
  "networkType": "ethereum",
  "devdoc": {
    "kind": "dev",
    "methods": {},
    "version": 1
  },
  "userdoc": {
    "kind": "user",
    "methods": {},
    "version": 1
  }
}