{
  "_format": "hh-sol-artifact-1",
  "contractName": "TokenWallet",
  "sourceName": "contracts/TokenWallet.sol",
  "abi": [
    {
      "inputs": [
        {
          "internalType": "bytes32",
          "name": "ticker",
          "type": "bytes32"
        },
        {
          "internalType": "address",
          "name": "tokenAddress",
          "type": "address"
        }
      ],
      "name": "addToken",
      "outputs": [],
      "stateMutability": "nonpayable",
      "type": "function"
    },
    {
      "inputs": [
        {
          "internalType": "address",
          "name": "",
          "type": "address"
        },
        {
          "internalType": "bytes32",
          "name": "",
          "type": "bytes32"
        }
      ],
      "name": "balances",
      "outputs": [
        {
          "internalType": "uint256",
          "name": "",
          "type": "uint256"
        }
      ],
      "stateMutability": "view",
      "type": "function"
    },
    {
      "inputs": [
        {
          "internalType": "uint256",
          "name": "amount",
          "type": "uint256"
        },
        {
          "internalType": "bytes32",
          "name": "ticker",
          "type": "bytes32"
        }
      ],
      "name": "deposit",
      "outputs": [],
      "stateMutability": "nonpayable",
      "type": "function"
    },
    {
      "inputs": [
        {
          "internalType": "uint256",
          "name": "",
          "type": "uint256"
        }
      ],
      "name": "tokenList",
      "outputs": [
        {
          "internalType": "bytes32",
          "name": "",
          "type": "bytes32"
        }
      ],
      "stateMutability": "view",
      "type": "function"
    },
    {
      "inputs": [
        {
          "internalType": "bytes32",
          "name": "",
          "type": "bytes32"
        }
      ],
      "name": "tokenMapping",
      "outputs": [
        {
          "internalType": "bytes32",
          "name": "ticker",
          "type": "bytes32"
        },
        {
          "internalType": "address",
          "name": "tokenAddress",
          "type": "address"
        }
      ],
      "stateMutability": "view",
      "type": "function"
    }
  ],
  "bytecode": "0x608060405234801561001057600080fd5b5061040f806100206000396000f3fe608060405234801561001057600080fd5b50600436106100575760003560e01c80631f14df691461005c578063667cb4ba146100855780639776aacf146100a65780639ead7222146100bb578063c9630cb0146100ce575b600080fd5b61006f61006a3660046102c4565b6100e1565b60405161007c9190610395565b60405180910390f35b61009861009336600461030d565b6100fe565b60405161007c92919061039e565b6100b96100b4366004610325565b610120565b005b61006f6100c936600461030d565b610198565b6100b96100dc366004610350565b6101b9565b600260209081526000928352604080842090915290825290205481565b600060208190529081526040902080546001909101546001600160a01b031682565b6040805180820182528381526001600160a01b0392831660208083019182526000868152908190529283209151825551600191820180546001600160a01b0319169190941617909255815480830183559190527fb10e2d527612073b26eecdfd717e6a320cf44b4afac2b0732d9fcbe2b7fa0cf60155565b600181815481106101a857600080fd5b600091825260209091200154905081565b600081815260208190526040908190206001015490516323b872dd60e01b81526001600160a01b03909116906323b872dd906101fd90339030908790600401610371565b602060405180830381600087803b15801561021757600080fd5b505af115801561022b573d6000803e3d6000fd5b505050506040513d601f19601f8201168201806040525081019061024f91906102ed565b503360009081526002602090815260408083208484529091529020546102759083610295565b336000908152600260209081526040808320948352939052919091205550565b60006102a182846103b5565b9392505050565b80356001600160a01b03811681146102bf57600080fd5b919050565b600080604083850312156102d6578182fd5b6102df836102a8565b946020939093013593505050565b6000602082840312156102fe578081fd5b815180151581146102a1578182fd5b60006020828403121561031e578081fd5b5035919050565b60008060408385031215610337578182fd5b82359150610347602084016102a8565b90509250929050565b60008060408385031215610362578182fd5b50508035926020909101359150565b6001600160a01b039384168152919092166020820152604081019190915260600190565b90815260200190565b9182526001600160a01b0316602082015260400190565b600082198211156103d457634e487b7160e01b81526011600452602481fd5b50019056fea2646970667358221220a1dbf16abde8108c5270cb8e94f54914871f8e3dde14137ee0995e9e392468ae64736f6c63430008000033",
  "linkReferences": {},
  "deployedLinkReferences": {}
}